:020000040000FA
:100000000C9463000C948B000C948B000C94880A65
:100010000C94880A0C94880A0C948B000C948B0026
:100020000C948B000C948B000C948B000C948B0024
:100030000C948B000C948B000C948B000C948B0014
:100040000C94E6090C948B000C94560A0C94300A1C
:100050000C948B000C948B000C948B000C948B00F4
:100060000C94000B0C948B0000000000240027006F
:100070002A0000000008000201000003040700003D
:1000800000000000000000000000230026002900FE
:1000900000000000250028002B00040404040404D0
:1000A0000404020202020202030303030303010227
:1000B00004081020408001020408102001020408F6
:1000C00010201F0C500F11241FBECFEFD8E0DEBF51
:1000D000CDBF11E0A0E0B1E0EEE7F2E202C0059092
:1000E0000D92A63AB107D9F724E0A6EAB1E001C023
:1000F0001D92AD31B207E1F710E0C2E6D0E004C0D6
:100100002197FE010E942C11C136D107C9F70E9428
:100110005E0D0C9432110C940000FC014283538359
:100120006483758386819781A085B185840F951F2F
:10013000A61FB71F82879387A487B5870895CF929C
:10014000DF92EF92FF92CF93DF93B0910504A0E08E
:100150008111AB2F8091060490E0880F991FAC01AC
:100160004A575F4FC0900B04D0900C04E0900D04F0
:10017000F0900E0430E020E0FA01C591D491E881BE
:10018000B90190E080E0EB23EA130AC02F5F3F4FF4
:100190006C157D058E059F0578F36FEF7FEFCB0122
:1001A000DF91CF91FF90EF90DF90CF900895CF93A4
:1001B000DF93AFE6B3E0FD01C191D191209741F00B
:1001C00049895A89EC0129893A8942175307D1F0A4
:1001D000D3E0ED38FD0781F730E020E04D915D91EF
:1001E000452B91F4220F331FF901E45AFC4F948BF5
:1001F000838B80918D0390918E03019690938E0353
:1002000080938D0381E006C02F5F3F4F2F30310573
:1002100029F780E0DF91CF910895833081F028F4B1
:10022000813099F08230A9F008958730A9F08830A4
:10023000C9F08430B1F4809180008F7D03C080913B
:1002400080008F7780938000089584B58F7784BD78
:10025000089584B58F7DFBCF8091B0008F77809318
:10026000B00008958091B0008F7DF9CFCF93DF93D8
:10027000282F30E0F901EE58FF4F8491F901E25543
:10028000FF4FD491F901E656FF4FC491CC23A1F062
:1002900081110E940D01EC2FF0E0EE0FFF1FEA57D5
:1002A000FF4FA591B491EC91ED2381E090E009F42A
:1002B00080E0DF91CF91089580E090E0FACF1F9326
:1002C000CF93DF93282F30E0F901EE58FF4F849150
:1002D000F901E255FF4FD491F901E656FF4FC49161
:1002E000CC23A9F0162F81110E940D01EC2FF0E014
:1002F000EE0FFF1FE057FF4FA591B4918FB7F89411
:10030000EC91111108C0D095DE23DC938FBFDF91F3
:10031000CF911F910895DE2BF8CFCF93DF9390E01C
:10032000FC01E255FF4F249186569F4FFC018491BA
:100330008823C9F090E0880F991FFC01E859FF4F0E
:10034000A591B491FC01E057FF4FC591D491611183
:100350000DC09FB7F8948C91209582238C9388814F
:10036000282328839FBFDF91CF910895623051F4F5
:100370009FB7F8943C91822F809583238C93E881DA
:100380002E2BEFCF8FB7F894EC912E2B2C938FBFA1
:10039000EACF3FB7F8948091AF029091B002A0915C
:1003A000B102B091B20226B5A89B05C02F3F19F04B
:1003B0000196A11DB11D3FBFBA2FA92F982F8827E5
:1003C000BC01CD01620F711D811D911D42E0660FC0
:1003D000771F881F991F4A95D1F708958F929F9292
:1003E000AF92BF92CF92DF92EF92FF924B015C01EE
:1003F0000E94C9016B017C010E94C9016C197D0931
:100400008E099F09683E734081059105A8F321E09C
:10041000821A9108A108B10888EEC80E83E0D81EA0
:10042000E11CF11C81149104A104B10429F7FF908F
:10043000EF90DF90CF90BF90AF909F908F900895F6
:100440002FB7F8946091AB027091AC028091AD022D
:100450009091AE022FBF0895CF92DF92EF92FF925C
:100460000F931F93CF93DF93CDB7DEB7C054D14026
:100470000FB6F894DEBF0FBECDBF0E9420020091E0
:100480000704109108042091090430910A046B01BB
:100490007C01C01AD10AE20AF30A97018601003DE5
:1004A00017402105310590F480910F04C05CDE4FA8
:1004B0000FB6F894DEBF0FBECDBFDF91CF911F9175
:1004C0000F91FF90EF90DF90CF9008956093070415
:1004D000709308048093090490930A041092020414
:1004E00010920104109200041092FF031092FE0378
:1004F00062E0809103040E948D0161E070E080E081
:1005000090E00E94EE0161E0809103040E948D0161
:1005100060E0809103040E945F0180910404855192
:10052000823020F58BE291E10197F1F762E0809152
:1005300003040E948D018091100490E082309105A7
:1005400038F0880F991F880F991F05970197F1F7C9
:10055000F89480E00E949F006F3F7F4F8F4F9F4F26
:1005600061F410920F04789480E0A0CF64E170E011
:1005700080E090E00E94EE01D9CF81E00E949F00D0
:100580006F3F7F4F8F4F9F4F61F38E010F5F1F4F64
:100590006E012FEBC21A2EEFD20A780180E00E9482
:1005A0009F00F701608371838283938381E00E94BF
:1005B0009F00F7016483758386839783F8E0EF0ECD
:1005C000F11CEC14FD0451F7789430E020E0F801C0
:1005D000C080D180E280F38044815581668177813B
:1005E000FFEFCF16DF06EF06FF0631F04F3F8FEF2C
:1005F00058076807780719F410920F04B5CFF9016E
:1006000083E0F595E7958A95E1F7E250FC4F80810C
:10061000880FC416D506E606F70610F180832F5F13
:100620003F4F085F1F4F2832310589F64091020481
:100630002091FE038091FF03280F3327331F809101
:100640000004280F311D80910104820F932F911D0A
:1006500099274817190681F681E080930F0426CF69
:100660008160DCCFCF92DF92EF92FF920E942C024A
:10067000882349F0809104048B3028F08D3040F0BD
:100680008551823030F160E070E080EC9FE71CC063
:100690006091FF0370E090E080E00E9411102DEC6B
:1006A0003CEC4CEC5DE30E949D106B017C01609181
:1006B000FE0370E090E080E00E9411109B01AC010D
:1006C000C701B6010E946D0FFF90EF90DF90CF90B1
:1006D00008956091FE037091FF03762767277627C0
:1006E00090E080E00E940F102DEC3CEC4CEC5DE3C0
:1006F0000E949D10E9CFCF93DF93EC018EE091E053
:100700009983888381E0888B1F861E861A861B86C4
:100710001C861D860E9420026E837F8388879987AE
:10072000DA8BC98B1A821B821C821D826A877B87A7
:100730008C879D87DF91CF9108950E9432030E949C
:10074000D90F7093DE036093DD0308950895089533
:10075000AF92BF92CF92DF92EF92FF920F931F93CF
:10076000CF93DF936C017B018B01040F151FEB010D
:100770005E01AE18BF08C017D10759F06991D601C4
:10078000ED91FC910190F081E02DC6010995892B36
:1007900079F7C501DF91CF911F910F91FF90EF90F5
:1007A000DF90CF90BF90AF900895FC01538D448DA2
:1007B000252F30E0842F90E0821B930B541710F00C
:1007C000CF96089501970895FC01918D828D981719
:1007D00061F0A28DAE0FBF2FB11D5D968C91928DF1
:1007E0009F5F9F73928F90E008958FEF9FEF089522
:1007F000FC01918D828D981731F0828DE80FF11DEB
:10080000858D90E008958FEF9FEF0895FC01918D05
:10081000228D892F90E0805C9F4F821B91098F73FE
:100820009927089583EB92E00E94060421E0892B2A
:1008300009F420E0822F089580E090E0892B29F0D0
:100840000E94120481110C9400000895FC01A48DF3
:10085000A80FB92FB11DA35ABF4F2C91848D90E0E2
:1008600001968F739927848FA689B7892C93A089C5
:10087000B1898C91837080648C93938D848D98134F
:1008800006C00288F389E02D80818F7D80830895E2
:10089000EF92FF920F931F93CF93DF93EC0181E0D0
:1008A000888F9B8D8C8D98131AC0E889F989808177
:1008B00085FF15C09FB7F894EE89FF896083E889AA
:1008C000F98980818370806480839FBF81E090E09C
:1008D000DF91CF911F910F91FF90EF900895F62E29
:1008E0000B8D10E00F5F1F4F0F731127E02E8C8DC3
:1008F0008E110CC00FB607FCFACFE889F989808108
:1009000085FFF5CFCE010E942604F1CFEB8DEC0FD1
:10091000FD2FF11DE35AFF4FF0829FB7F8940B8F24
:10092000EA89FB8980818062CFCFCF93DF93EC018E
:10093000888D8823B9F0AA89BB89E889F9898C91C7
:1009400085FD03C0808186FD0DC00FB607FCF7CF83
:100950008C9185FFF2CF808185FFEDCFCE010E9483
:100960002604E9CFDF91CF9108952091A002309124
:10097000A1022817390771F490919F0280919E027D
:10098000981741F0E0919F02F0E0E25AFD4F80811C
:1009900090E008958FEF9FEF08950895EF92FF92F2
:1009A0000F931F93CF93DF93DC015C96ED90FC9047
:1009B0005D97E114F10479F481E090E013969C9343
:1009C0008E93129790E080E0DF91CF911F910F916D
:1009D000FF90EF9008955196ED91FC9152975096AB
:1009E0008C915097982F90950FB75E962C915E97AB
:1009F000122F127021FD6095F8942081112319F1B6
:100A0000282B2083E7012197F1F728E0462F50E0BB
:100A1000308160FF1AC0382B3083E7012197F1F74E
:100A2000BA0175956795215089F7112381F080816E
:100A3000892380830FBF5C968D919C910197F1F77C
:100A400081E090E0C1CF2923DCCF3923E5CF90812D
:100A5000892BEFCF2091A0023091A10228173907EE
:100A600061F480919E0220919F0290E0805C9F4FF4
:100A7000821B91098F739927089590E080E0089573
:100A80002091A0023091A10228173907B9F4909162
:100A90009F0280919E02981789F0E0919F02F0E0FA
:100AA000E25AFD4F808120919F0230E02F5F3F4F3F
:100AB0002F73332720939F0290E008958FEF9FEFCD
:100AC00008958F929F92AF92BF92CF92DF92EF9252
:100AD000FF920F931F93CF93DF93EC01EE85FF8579
:100AE000309709F009950E9420024B015C018E01AC
:100AF0000D5E1F4F6E0121E3C20ED11CF12CE12CC3
:100B000089A99AA98E159F0514F1D8018D919D91FF
:100B10008D010097C9F0BFEFEB1AFB0ADC01ED91E4
:100B2000FC910280F381E02DB501A4010995882391
:100B300059F0F801329780819181DC01ED91FC91AF
:100B40000480F581E02D0995C016D106C9F60E94F2
:100B500020026E837F83888799870A811B812C817D
:100B60003D81DC01CB01800F911FA21FB31F8A873B
:100B70009B87AC87BD87DF91CF911F910F91FF902D
:100B8000EF90DF90CF90BF90AF909F908F9008959F
:100B90000F931F93CF93DF93EC01EE85FF85309782
:100BA00009F009950E9420026E837F8388879987C8
:100BB0000A811B812C813D81DC01CB01800F911FBB
:100BC000A21FB31F8A879B87AC87BD87DF91CF9118
:100BD0001F910F9108950F931F93FC0102851385B8
:100BE00024853585401B510B620B730B80E077FF2A
:100BF00080891F910F91089520911402260F3327A9
:100C0000331F21323105ECF420913802FC0190E0D1
:100C100080E0243069F082E00895A09114022191CF
:100C2000AC014C505E4FA40FB52FB11D2C93019613
:100C3000861798F380911402680F6093140280E085
:100C4000089581E008951092380281E080933A027D
:100C50001092390261E082E10E945F0161E083E16C
:100C60000E945F01E9EBF0E080818E7F80838081CC
:100C70008D7F808388E48093B80085E48093BC00F6
:100C80000895CF93DF9391E09093F3018823B9F017
:100C9000C091B800D091BA008091BC008A7B80934B
:100CA000BC0060E082E10E945F0160E083E10E949D
:100CB0005F010E942306D093BA00C093B800DF9171
:100CC000CF910895E091A9028091A802E81730F42D
:100CD000F0E0E253FE4F808190E008958FEF9FEFA8
:100CE00008959091A9028091A8022FEF3FEF9817E5
:100CF00048F4E92FF0E0E253FE4F208130E09F5F9F
:100D00009093A902C90108958091A8029091A90227
:100D1000891B990B0895CF92DF92EF92FF920F9368
:100D20001F93CF93DF937C01CB018A012091CD01EA
:100D3000222389F0EB016B01C40ED51ECC15DD0515
:100D400069F06991D701ED91FC910190F081E02D5E
:100D5000C7010995F3CF642F0E94FC05C801DF91FC
:100D6000CF911F910F91FF90EF90DF90CF9008955A
:100D7000CF93DF931F92CDB7DEB769832091CD016A
:100D80002223F9F02091A602203258F021E030E031
:100D9000FC013383228390E080E00F90DF91CF91BC
:100DA00008958091A702E82FF0E0E355FE4F998166
:100DB00090838F5F8093A7028093A60281E090E0EA
:100DC000ECCF61E0CE0101960E94FC05F7CFCF92F7
:100DD000DF92EF92FF920F931F93CF93DF93FC016B
:100DE000C48121E02093CD01C093AC011092A702F1
:100DF0001092A6028385682B80E593E00E94B806D6
:100E0000D091A602D13208F092C00E94C9016B01B4
:100E10007C0180913802811165C082E080933802A4
:100E200081E080933A028FEF8093370210925C0248
:100E3000D0935B02ADEAB1E0EBE3F2E080E0D813DF
:100E400085C010925D0280915D02CC0FC82BC093CB
:100E50005D0280913902813009F07CC01092390224
:100E60000E94C9016B017C0180915D028093BB00EF
:100E70008091EF019091F001A091F101B091F20108
:100E8000892B8A2B8B2B99F00E94C9010091EF01CD
:100E90001091F0012091F1013091F2016C197D095E
:100EA0008E099F090617170728073907E0F1809177
:100EB000BC0083FDD9CF85EC8093BC000E94C901A2
:100EC0006B017C0180913802823009F445C0809129
:100ED00037028F3F61F180913702803241F180917A
:100EE000370225C08091EF019091F001A091F101AE
:100EF000B091F201892B8A2B8B2B09F48ACF0E94A7
:100F0000C9010091EF011091F0012091F1013091A0
:100F1000F2016C197D098E099F090617170728072A
:100F2000390708F076CF8091EE010E9441061092B9
:100F3000A7021092A6021092CD01DF91CF911F91CE
:100F40000F91FF90EF90DF90CF9008959D91919336
:100F50008F5F75CF85EEB0CF8091EF019091F0015A
:100F6000A091F101B091F201892B8A2B8B2B09F40E
:100F7000A9CF0E94C9010091EF011091F0012091C9
:100F8000F1013091F2016C197D098E099F09061754
:100F900017072807390708F095CFC5CF089590E0C7
:100FA00080E008950F931F93CF938C01C62F0E946A
:100FB000E7066C2F6460C8010E94E7066C2F6B7F08
:100FC000C8010E94E70683EC90E00197F1F7CF910A
:100FD0001F910F9108950F931F93CF93DF938C016F
:100FE000D62FC42F607F642B0E94D20780E1D89F48
:100FF000B00111246C2BC801DF91CF911F910F918B
:101000000C94D20741E00E94EB0781E090E0089544
:10101000CF93DF93CDB7DEB728970FB6F894DEBF36
:101020000FBECDBF98E0E2E0F1E0DE011196019045
:101030000D929A95E1F790911904981708F48FEFA3
:1010400090E0880F991F21E030E02C0F3D1F820FA8
:10105000931FFC016081606840E081E194E0289684
:101060000FB6F894DEBF0FBECDBFDF91CF910C94C9
:10107000EB07FB0101900020E9F73197AF01461B18
:10108000570BDC01ED91FC910280F381E02D099476
:101090008F929F92AF92BF92CF92DF92EF92FF9288
:1010A000CF93DF93CDB7DEB7A1970FB6F894DEBF2D
:1010B0000FBECDBF6C01990FEE08FF08F7FE40C0D0
:1010C00041E06DE281E194E00E94EB0722273327A3
:1010D000A9012C193D094E095F0919A2CE0181967B
:1010E0007C019AE0892E912CA12CB12CCA01B90166
:1010F000A50194010E940A11605DF70162937F01CE
:10110000211531054105510589F790E080E03097C0
:1011100029F0BF0181E194E00E9439080196A1966F
:101120000FB6F894DEBF0FBECDBFDF91CF91FF9019
:10113000EF90DF90CF90BF90AF909F908F900895E9
:10114000A701960119A2CE0181967C018AE0882E22
:10115000912CA12CB12CCA01B901A50194010E94C6
:101160000A11605DF70162937F0121153105410588
:10117000510589F790E080E0309789F2BF0181E165
:1011800094E00E943908CBCFCF93DF93BC0183EB6F
:1011900092E00E943908EC0160E671E083EB92E096
:1011A0000E9439088C0F9D1FDF91CF910895CF9336
:1011B000DF9382E00E9436012091DB033091DC0353
:1011C0008217930719F584E00E943601EC0182E052
:1011D0000E943601C817D90759F583E691E00E94AD
:1011E000C4088091000190910101893291052CF091
:1011F0000197909301018093000182E00E943601E3
:101200000E9436019093DC038093DB0383E00E940D
:101210003601892BD1F48091AA01811118C081E097
:101220008093AA018EE691E0DF91CF910C94C408DF
:1012300088E691E00E94C40880910001909101012C
:1012400080359105D4F60196D4CF1092AA01DF9192
:10125000CF9108958091AB014091DD035091DE0361
:1012600020910001309101014217530774F481115C
:1012700018C061E085E00E945F0185E791E00E946F
:10128000C40881E08093AB010895882351F060E0A9
:1012900085E00E945F0183E891E00E94C4081092FB
:1012A000AB0108952091A8013091A9018091DD033F
:1012B0009091DE032817390761F42091A60130913F
:1012C000A70180910001909101012817390709F4C5
:1012D00044C040E061E081E194E00E94EB078BE3D1
:1012E0009FE10197F1F780E00E94080861E971E051
:1012F00081E194E00E9439088091DD039091DE0342
:101300000E9448086AE971E081E194E00E9439088E
:1013100081E00E9408086CE971E081E194E00E949C
:10132000390880910001909101010E9448086AE902
:1013300071E081E194E00E9439088091DD03909191
:10134000DE039093A9018093A80180910001909100
:1013500001019093A7018093A601089585ED8093E4
:10136000BC008091EF019091F001A091F101B0914A
:10137000F2010796A11DB11D23E0B695A79597959B
:1013800087952A95D1F72091BC0024FD03C01092C7
:10139000380208954091EF015091F0016091F10100
:1013A0007091F201452B462B472B69F30097A1055D
:1013B000B10541F02AE22A95F1F700C00197A10991
:1013C000B109E1CF8091EE010C9441061F920F927A
:1013D0000FB60F9211242F933F938F939F93AF9348
:1013E000BF938091AB029091AC02A091AD02B091FD
:1013F000AE023091AA0223E0230F2D3758F5019653
:10140000A11DB11D2093AA028093AB029093AC0260
:10141000A093AD02B093AE028091AF029091B00262
:10142000A091B102B091B2020196A11DB11D8093AD
:10143000AF029093B002A093B102B093B202BF91F9
:10144000AF919F918F913F912F910F900FBE0F9071
:101450001F90189526E8230F0296A11DB11DD2CF2B
:101460001F920F920FB60F9211242F933F934F9319
:101470005F936F937F938F939F93AF93BF93EF93FC
:10148000FF9383EB92E00E942604FF91EF91BF91BE
:10149000AF919F918F917F916F915F914F913F910C
:1014A0002F910F900FBE0F901F9018951F920F92C3
:1014B0000FB60F9211242F938F939F93EF93FF9367
:1014C000E091C302F091C4028081E091C902F091E1
:1014D000CA0282FD1BC090818091CC028F5F8F7306
:1014E0002091CD02821741F0E091CC02F0E0ED5462
:1014F000FD4F958F8093CC02FF91EF919F918F913B
:101500002F910F900FBE0F901F9018958081F4CFF0
:101510001F920F920FB60F9211242F933F934F9368
:101520005F936F937F938F939F93AF93BF93EF934B
:10153000FF93E091A002F091A102309749F0A685B7
:10154000B7858585968D91FF14C09C918923A1F460
:10155000FF91EF91BF91AF919F918F917F916F918B
:101560005F914F913F912F910F900FBE0F901F9061
:1015700018959C91892361F7A389B4899C918589E9
:10158000809589238C93868997890197F1F7608DDF
:10159000718DA685B785558538E020E0CB01019790
:1015A000F1F7822F90E095958795282F4C91452350
:1015B00009F02068315091F7868D81FD209580914A
:1015C0009E0290E001968F73992730919F02381701
:1015D00099F0A0919E02B0E0A25ABD4F2C93809347
:1015E0009E02828D938D0197F1F7A389B4898C9126
:1015F0009589892B8C93ACCF868D8160868FF1CFB6
:101600001F920F920FB60F9211242F933F934F9377
:101610005F936F937F938F939F93AF93BF93EF935A
:10162000FF938091B900887F803609F44AC0F0F5B5
:10163000883209F4A7C018F5803109F49BC0B8F4CA
:10164000882309F4F9C0883009F494C0FF91EF9120
:10165000BF91AF919F918F917F916F915F914F91CA
:101660003F912F910F900FBE0F901F9018958831CA
:1016700009F488C0803251F78093370214C0803457
:1016800009F49DC040F48033B9F38833F9F68093B0
:10169000370285ECB0C0803509F485C0883509F47F
:1016A00096C0883499F60E94AE09D0CF883909F4E3
:1016B0008CC038F5883729F050F4883611F080371F
:1016C00029F683E0809338021092360257C088389A
:1016D00009F47BC0803919F0803809F0B7CF8091C8
:1016E0003602803208F071C0E091360281E08E0F40
:1016F000809336028091BB00F0E0EA5EFD4F80836C
:101700003DC0803B39F0E0F4803A09F479C0883A72
:1017100009F09CCF84E08093380210921502109259
:101720001402E091A402F091A5020995809114029F
:1017300081110FC081E0809314021092F40109C05E
:10174000803C09F4A6CF883C09F4A3CF883B09F07C
:101750007DCFE091150281E08E0F80931502F0E0BD
:10176000EC50FE4F80818093BB00909115028091D8
:10177000140229C080915D028093BB0085EC8093A8
:10178000BC0064CF90915C0280915B02981758F581
:10179000E0915C0281E08E0F80935C02F0E0E55CFA
:1017A000FD4F8081E9CFE0915C0281E08E0F809354
:1017B0005C028091BB00F0E0E55CFD4F808390917E
:1017C0005C0280915B029817C8F285E8D8CFE0915F
:1017D0005C0281E08E0F80935C028091BB00F0E0A0
:1017E000E55CFD4F808380913A0281115CCF81E0FE
:1017F0008093390284EA8093BC001092380226CF8D
:1018000085EC8093BC0010923802809136028032C1
:1018100030F4E0913602F0E0EA5EFD4F1082609114
:10182000360270E0E091A202F091A30286E192E01C
:101830000995109236020ACF1092370234CF1092D7
:10184000B6021092B50288EE93E0A0E0B0E080937B
:10185000B7029093B802A093B902B093BA0228E1FC
:1018600031E03093B4022093B30225EC30E03093A2
:10187000C0022093BF0224EC30E03093C2022093D8
:10188000C10220EC30E03093C4022093C30221EC6B
:1018900030E03093C6022093C50222EC30E0309352
:1018A000C8022093C70226EC30E03093CA0220938E
:1018B000C9021092CC021092CD021092CE02109268
:1018C000CF021092530310925203809354039093CB
:1018D0005503A0935603B09357032AE231E03093A7
:1018E000510320935003109214041092130428E51E
:1018F00031E0309312042093110427E22093150461
:1019000020E120931A0422E020931B0410921C046F
:101910002FE0209303042BE020930404EDEBF0E090
:10192000E491E0930504E9EAF0E0E491E093060431
:1019300040E85EE360E070E040930B0450930C04D9
:1019400060930D0470930E041092E2031092E10371
:101950008093E3039093E403A093E503B093E6033D
:1019600086E491E09093E0038093DF031092F60306
:101970001092F5031092F8031092F7031092FA03F5
:101980001092F9031092FC031092FB036091FD0387
:101990006E7F6D7F6093FD036695617081E06827BF
:1019A00085E00E945F0161E085E00E948D01E3EB2C
:1019B000F0E0E491E093EF03EFE9F0E0E491F0E090
:1019C000EE0FFF1FE057FF4F859194919093F10325
:1019D0008093F00360E084E00E948D018091FD031C
:1019E00081FD04C061E084E00E945F0184E0809397
:1019F000EB03E2EBF0E0E491E093EC03EEE9F0E0DE
:101A0000E491F0E0EE0FFF1FEA57FF4F85919491AC
:101A10009093EE038093ED030E9432030E94D90F4E
:101A20007093DE036093DD0382E00E9436019093A1
:101A3000DC038093DB0384E00E94360188EC93E0B2
:101A40000E947B0385EB93E00E947B0382EA93E094
:101A50000E947B038FE893E00E947B038CE593E078
:101A60000E947B038CE391E090935D0380935C0381
:101A700010928E0310928D03EFE6F3E08DE893E071
:101A8000119211928E179F07D9F710925E03109250
:101A90005F03109260031092610380916203909142
:101AA0006303A0916403B0916503809366039093F0
:101AB0006703A0936803B09369030895789484B58D
:101AC000826084BD84B5816084BD85B5826085BD3A
:101AD00085B5816085BD80916E00816080936E00C8
:101AE00010928100809181008260809381008091BA
:101AF000810081608093810080918000816080936B
:101B000080008091B10084608093B1008091B0002A
:101B100081608093B00080917A00846080937A0025
:101B200080917A00826080937A0080917A0081604F
:101B300080937A0080917A00806880937A00109276
:101B4000C100E091C302F091C40282E08083E09181
:101B5000BF02F091C0021082E091C102F091C20276
:101B60008FEC80831092CB02E091C702F091C80203
:101B700086E08083E091C502F091C6028081806199
:101B80008083E091C502F091C602808188608083E5
:101B9000E091C502F091C602808180688083E09167
:101BA000C502F091C60280818F7D808362E08091C2
:101BB00003040E948D010E942002605D774081092C
:101BC000910960930704709308048093090490932B
:101BD0000A0487E38093100460E082E00E948D0194
:101BE00062E083E00E948D0160E084E00E948D014C
:101BF00061E085E00E948D011092A9021092A80276
:101C00001092A7021092A6020E94230686EA93E091
:101C10009093A5028093A40287EA93E09093A30295
:101C20008093A2021092160480911B04823018F057
:101C300098E0909316048093190462E370E080E0CA
:101C400090E00E94EE0160911C0481E194E00E940A
:101C5000E70668EE73E080E090E00E94EE0160E34A
:101C600081E194E00E94D207CBE4D6E4CE01019753
:101C7000F1F760E381E194E00E94D2072197F1F748
:101C800060E381E194E00E94D20783E592E001974E
:101C9000F1F760E281E194E00E94D20760911604BE
:101CA000606240E081E194E00E94EB0784E0809371
:101CB000170440E06CE081E194E00E94EB0740E013
:101CC00061E081E194E00E94EB07CBE3DFE1CE012C
:101CD0000197F1F782E08093180440E066E081E12B
:101CE00094E00E94EB0740E062E081E194E00E9412
:101CF000EB072197F1F788E080931C0460E081E115
:101D000094E00E94E70682E599E09093D7038093E0
:101D1000D6038AEF90E0A0E0B0E08093CA039093EE
:101D2000CB03A093CC03B093CD038091CE039091CD
:101D3000CF03A091D003B091D10386509F4FAF4FF6
:101D4000BF4F8093D2039093D303A093D403B09357
:101D5000D5038DE993E09093C4038093C30388EE89
:101D600093E0A0E0B0E08093B7039093B803A09312
:101D7000B903B093BA038091BB039091BC03A091C7
:101D8000BD03B091BE0388519C4FAF4FBF4F8093AE
:101D9000BF039093C003A093C103B093C20387ED28
:101DA00098E09093B1038093B0031092A403109233
:101DB000A5031092A6031092A7038091A803909107
:101DC000A903A091AA03B091AB038093AC039093B5
:101DD000AD03A093AE03B093AF038AE299E0909372
:101DE0009E0380939D0384E690E0A0E0B0E08093A2
:101DF000910390939203A0939303B09394038091E3
:101E0000950390919603A0919703B09198038C59F4
:101E10009F4FAF4FBF4F8093990390939A03A09326
:101E20009B03B0939C0388EC93E00E94D70085EB62
:101E300093E00E94D70082EA93E00E94D7008FE8E7
:101E400093E00E94D700C0E0D0E08CE593E00E94D0
:101E500061058FED93E00E942A05892B49F08FEDF3
:101E600093E00E944005682F83EB92E00E944804B3
:101E700083EB92E00E940604892B49F083EB92E009
:101E80000E94E403682F8FED93E00E94CE04209718
:101E9000E1F20E9412048823C1F20E940000D5CF13
:101EA00086E491E09093E0038093DF038091A002A9
:101EB0009091A1028F5D934071F4E091F203F09153
:101EC000F30390818091F40380958923808310929D
:101ED000A1021092A00208955058BB27AA270E9481
:101EE000840F0C9463100E94551038F00E945C100F
:101EF00020F039F49F3F19F426F40C9452100EF49C
:101F0000E095E7FB0C944C10E92F0E94741058F3F5
:101F1000BA17620773078407950720F079F4A6F5CE
:101F20000C9496100EF4E0950B2EBA2FA02D0B01F9
:101F3000B90190010C01CA01A0011124FF27591B0E
:101F400099F0593F50F4503E68F11A16F040A22F14
:101F5000232F342F4427585FF3CF46953795279585
:101F6000A795F0405395C9F77EF41F16BA0B620B84
:101F7000730B840BBAF09150A1F0FF0FBB1F661FCB
:101F8000771F881FC2F70EC0BA0F621F731F841F0E
:101F900048F4879577956795B795F7959E3F08F034
:101FA000B0CF9395880F08F09927EE0F97958795F6
:101FB00008950E94E00F6894B1110C949710089551
:101FC0000E947C1088F09F5798F0B92F9927B7513D
:101FD000B0F0E1F0660F771F881F991F1AF0BA95CD
:101FE000C9F714C0B13091F00E949610B1E0089585
:101FF0000C949610672F782F8827B85F39F0B93F77
:10200000CCF3869577956795B395D9F73EF490957F
:102010008095709561957F4F8F4F9F4F0895E894FD
:1020200009C097FB3EF490958095709561957F4F20
:102030008F4F9F4F9923A9F0F92F96E9BB279395CE
:10204000F695879577956795B795F111F8CFFAF4DE
:10205000BB0F11F460FF1BC06F5F7F4F8F4F9F4F0F
:1020600016C0882311F096E911C0772321F09EE86D
:10207000872F762F05C0662371F096E8862F70E0D3
:1020800060E02AF09A95660F771F881FDAF7880FAD
:102090009695879597F9089597F99F6780E870E07E
:1020A00060E008959FEF80EC089500240A941616CE
:1020B000170618060906089500240A941216130636
:1020C000140605060895092E0394000C11F48823C4
:1020D00052F0BB0F40F4BF2B11F460FF04C06F5FE0
:1020E0007F4F8F4F9F4F089557FD9058440F551FB6
:1020F00059F05F3F71F04795880F97FB991F61F08A
:102100009F3F79F087950895121613061406551F00
:10211000F2CF4695F1DF08C0161617061806991F6C
:10212000F1CF86957105610508940895E894BB2761
:1021300066277727CB0197F908950E94B0100C9479
:1021400063100E94551038F00E945C1020F0952317
:1021500011F00C944C100C94521011240C94971004
:102160000E94741070F3959FC1F3950F50E0551FB6
:10217000629FF001729FBB27F00DB11D639FAA27DC
:10218000F00DB11DAA1F649F6627B00DA11D661F2B
:10219000829F2227B00DA11D621F739FB00DA11D4C
:1021A000621F839FA00D611D221F749F3327A00D06
:1021B000611D231F849F600D211D822F762F6A2FA2
:1021C00011249F5750409AF0F1F088234AF0EE0F07
:1021D000FF1FBB1F661F771F881F91505040A9F734
:1021E0009E3F510580F00C944C100C9497105F3F6B
:1021F000E4F3983ED4F3869577956795B795F79570
:10220000E7959F5FC1F7FE2B880F911D96958795E7
:1022100097F90895A1E21A2EAA1BBB1BFD010DC060
:10222000AA1FBB1FEE1FFF1FA217B307E407F50786
:1022300020F0A21BB30BE40BF50B661F771F881F62
:10224000991F1A9469F760957095809590959B01F8
:10225000AC01BD01CF010895EE0FFF1F0590F49171
:10226000E02D099410E0C2E6D0E004C0FE010E9417
:102270002C112196C336D107C9F7F894FFCF280057
:102280000000400014005400000000008D00EB0529
:10229000C805000000004804A803D50395040604FF
:1022A000E403F80300000000B8068B06CF07CD0456
:1022B000840671066206000000008D00EB056105D2
:1022C00000000000CE04A803CF07CD042A05400576
:1022D000B504000000000208A803CF07CE070D0ACE
:1022E000004C45465400524947485400EB888CEB5B
:1022F000A6BC00EAB080EC8AB5EAB8B020ECBCAC71
:1023000000EAB080EC8AB5EAB8B020EB8194004EC8
:102310005F48554D203A20002500545F48554D2018
:042320003A2000005F
:107E0000112484B714BE81FFF0D085E080938100F7
:107E100082E08093C00088E18093C10086E0809377
:107E2000C20080E18093C4008EE0C9D0259A86E02C
:107E300020E33CEF91E0309385002093840096BBD3
:107E4000B09BFECF1D9AA8958150A9F7CC24DD24C4
:107E500088248394B5E0AB2EA1E19A2EF3E0BF2EE7
:107E6000A2D0813461F49FD0082FAFD0023811F036
:107E7000013811F484E001C083E08DD089C08234E0
:107E800011F484E103C0853419F485E0A6D080C0E4
:107E9000853579F488D0E82EFF2485D0082F10E0AE
:107EA000102F00270E291F29000F111F8ED06801E7
:107EB0006FC0863521F484E090D080E0DECF843638
:107EC00009F040C070D06FD0082F6DD080E0C81688
:107ED00080E7D80618F4F601B7BEE895C0E0D1E017
:107EE00062D089930C17E1F7F0E0CF16F0E7DF06D8
:107EF00018F0F601B7BEE89568D007B600FCFDCFD4
:107F0000A601A0E0B1E02C9130E011968C91119780
:107F100090E0982F8827822B932B1296FA010C0160
:107F200087BEE89511244E5F5F4FF1E0A038BF0790
:107F300051F7F601A7BEE89507B600FCFDCF97BE46
:107F4000E89526C08437B1F42ED02DD0F82E2BD052
:107F50003CD0F601EF2C8F010F5F1F4F84911BD097
:107F6000EA94F801C1F70894C11CD11CFA94CF0C13
:107F7000D11C0EC0853739F428D08EE10CD085E9AC
:107F80000AD08FE07ACF813511F488E018D01DD067
:107F900080E101D065CF982F8091C00085FFFCCF94
:107FA0009093C60008958091C00087FFFCCF809118
:107FB000C00084FD01C0A8958091C6000895E0E648
:107FC000F0E098E1908380830895EDDF803219F02E
:107FD00088E0F5DFFFCF84E1DECF1F93182FE3DFCA
:107FE0001150E9F7F2DF1F91089580E0E8DFEE27F6
:047FF000FF270994CA
:027FFE00040479
:00000001FF
